{
  "contractName": "Storage",
  "abi": [
    {
      "constant": true,
      "inputs": [],
      "name": "priceCap",
      "outputs": [
        {
          "name": "",
          "type": "uint256"
        }
      ],
      "payable": false,
      "stateMutability": "view",
      "type": "function"
    },
    {
      "constant": true,
      "inputs": [
        {
          "name": "",
          "type": "uint256"
        }
      ],
      "name": "bids",
      "outputs": [
        {
          "name": "price",
          "type": "uint256"
        },
        {
          "name": "provider",
          "type": "address"
        },
        {
          "name": "ipfs_id",
          "type": "string"
        },
        {
          "name": "approval",
          "type": "bool"
        }
      ],
      "payable": false,
      "stateMutability": "view",
      "type": "function"
    },
    {
      "constant": true,
      "inputs": [],
      "name": "manager",
      "outputs": [
        {
          "name": "",
          "type": "address"
        }
      ],
      "payable": false,
      "stateMutability": "view",
      "type": "function"
    },
    {
      "inputs": [
        {
          "name": "cap",
          "type": "uint256"
        }
      ],
      "payable": true,
      "stateMutability": "payable",
      "type": "constructor"
    },
    {
      "constant": false,
      "inputs": [
        {
          "name": "price",
          "type": "uint256"
        },
        {
          "name": "ipfs_id",
          "type": "string"
        }
      ],
      "name": "createBid",
      "outputs": [],
      "payable": false,
      "stateMutability": "nonpayable",
      "type": "function"
    },
    {
      "constant": false,
      "inputs": [
        {
          "name": "id",
          "type": "uint256"
        }
      ],
      "name": "approveBid",
      "outputs": [],
      "payable": false,
      "stateMutability": "nonpayable",
      "type": "function"
    },
    {
      "constant": true,
      "inputs": [
        {
          "name": "id",
          "type": "uint256"
        }
      ],
      "name": "getIpfsId",
      "outputs": [
        {
          "name": "",
          "type": "string"
        }
      ],
      "payable": false,
      "stateMutability": "view",
      "type": "function"
    },
    {
      "constant": true,
      "inputs": [
        {
          "name": "id",
          "type": "uint256"
        }
      ],
      "name": "getBid",
      "outputs": [
        {
          "name": "",
          "type": "uint256"
        },
        {
          "name": "",
          "type": "address"
        },
        {
          "name": "",
          "type": "string"
        },
        {
          "name": "",
          "type": "bool"
        }
      ],
      "payable": false,
      "stateMutability": "view",
      "type": "function"
    }
  ],
  "bytecode": "0x6080604052604051602080610b768339810180604052810190808051906020019092919050505033600160006101000a81548173ffffffffffffffffffffffffffffffffffffffff021916908373ffffffffffffffffffffffffffffffffffffffff1602179055508060028190555050610af88061007e6000396000f300608060405260043610610083576000357c0100000000000000000000000000000000000000000000000000000000900463ffffffff16806302b7847c146100885780633c889e6f146100b35780634423c5f11461019e578063481c6a7514610289578063613e867e146102e0578063701375931461030d578063f57250cb14610380575b600080fd5b34801561009457600080fd5b5061009d610426565b6040518082815260200191505060405180910390f35b3480156100bf57600080fd5b506100de6004803603810190808035906020019092919050505061042c565b604051808581526020018473ffffffffffffffffffffffffffffffffffffffff1673ffffffffffffffffffffffffffffffffffffffff1681526020018060200183151515158152602001828103825284818151815260200191508051906020019080838360005b83811015610160578082015181840152602081019050610145565b50505050905090810190601f16801561018d5780820380516001836020036101000a031916815260200191505b509550505050505060405180910390f35b3480156101aa57600080fd5b506101c9600480360381019080803590602001909291905050506105aa565b604051808581526020018473ffffffffffffffffffffffffffffffffffffffff1673ffffffffffffffffffffffffffffffffffffffff1681526020018060200183151515158152602001828103825284818151815260200191508051906020019080838360005b8381101561024b578082015181840152602081019050610230565b50505050905090810190601f1680156102785780820380516001836020036101000a031916815260200191505b509550505050505060405180910390f35b34801561029557600080fd5b5061029e6106ae565b604051808273ffffffffffffffffffffffffffffffffffffffff1673ffffffffffffffffffffffffffffffffffffffff16815260200191505060405180910390f35b3480156102ec57600080fd5b5061030b600480360381019080803590602001909291905050506106d4565b005b34801561031957600080fd5b5061037e60048036038101908080359060200190929190803590602001908201803590602001908080601f016020809104026020016040519081016040528093929190818152602001838380828437820191505050505050919291929050505061080a565b005b34801561038c57600080fd5b506103ab60048036038101908080359060200190929190505050610924565b6040518080602001828103825283818151815260200191508051906020019080838360005b838110156103eb5780820151818401526020810190506103d0565b50505050905090810190601f1680156104185780820380516001836020036101000a031916815260200191505b509250505060405180910390f35b60025481565b6000806060600061043b6109e6565b60008681548110151561044a57fe5b906000526020600020906004020160806040519081016040529081600082015481526020016001820160009054906101000a900473ffffffffffffffffffffffffffffffffffffffff1673ffffffffffffffffffffffffffffffffffffffff1673ffffffffffffffffffffffffffffffffffffffff168152602001600282018054600181600116156101000203166002900480601f01602080910402602001604051908101604052809291908181526020018280546001816001161561010002031660029004801561055d5780601f106105325761010080835404028352916020019161055d565b820191906000526020600020905b81548152906001019060200180831161054057829003601f168201915b505050505081526020016003820160009054906101000a900460ff161515151581525050905080600001518160200151826040015183606001518191509450945094509450509193509193565b6000818154811015156105b957fe5b90600052602060002090600402016000915090508060000154908060010160009054906101000a900473ffffffffffffffffffffffffffffffffffffffff1690806002018054600181600116156101000203166002900480601f0160208091040260200160405190810160405280929190818152602001828054600181600116156101000203166002900480156106915780601f1061066657610100808354040283529160200191610691565b820191906000526020600020905b81548152906001019060200180831161067457829003601f168201915b5050505050908060030160009054906101000a900460ff16905084565b600160009054906101000a900473ffffffffffffffffffffffffffffffffffffffff1681565b600080828154811015156106e457fe5b906000526020600020906004020190503373ffffffffffffffffffffffffffffffffffffffff16600160009054906101000a900473ffffffffffffffffffffffffffffffffffffffff1673ffffffffffffffffffffffffffffffffffffffff1614151561075057600080fd5b80600001543073ffffffffffffffffffffffffffffffffffffffff16311015151561077a57600080fd5b8060010160009054906101000a900473ffffffffffffffffffffffffffffffffffffffff1673ffffffffffffffffffffffffffffffffffffffff166108fc82600001549081150290604051600060405180830381858888f193505050501580156107e8573d6000803e3d6000fd5b5060018160030160006101000a81548160ff0219169083151502179055505050565b6108126109e6565b600254831115151561082357600080fd5b6080604051908101604052808481526020013373ffffffffffffffffffffffffffffffffffffffff168152602001838152602001600015158152509050600081908060018154018082558091505090600182039060005260206000209060040201600090919290919091506000820151816000015560208201518160010160006101000a81548173ffffffffffffffffffffffffffffffffffffffff021916908373ffffffffffffffffffffffffffffffffffffffff16021790555060408201518160020190805190602001906108fb929190610a27565b5060608201518160030160006101000a81548160ff021916908315150217905550505050505050565b606060008281548110151561093557fe5b90600052602060002090600402016002018054600181600116156101000203166002900480601f0160208091040260200160405190810160405280929190818152602001828054600181600116156101000203166002900480156109da5780601f106109af576101008083540402835291602001916109da565b820191906000526020600020905b8154815290600101906020018083116109bd57829003601f168201915b50505050509050919050565b60806040519081016040528060008152602001600073ffffffffffffffffffffffffffffffffffffffff168152602001606081526020016000151581525090565b828054600181600116156101000203166002900490600052602060002090601f016020900481019282601f10610a6857805160ff1916838001178555610a96565b82800160010185558215610a96579182015b82811115610a95578251825591602001919060010190610a7a565b5b509050610aa39190610aa7565b5090565b610ac991905b80821115610ac5576000816000905550600101610aad565b5090565b905600a165627a7a723058206d1ee73bb0aa2b8c655baa44aef692862da428588b5e25037df3f7e11e29f0c20029",
  "source": "pragma solidity ^0.4.17;\n\ncontract Storage {\n    struct Bid {\n        uint price;\n        address provider;\n        string ipfs_id;\n        bool approval;\n    }\n\n    Bid[] public bids;\n    address public manager;\n    uint public priceCap;\n\n    constructor(uint cap) public payable {\n        manager = msg.sender;\n        priceCap = cap;\n    }\n\n    function createBid(uint price, string ipfs_id) public {\n        require(price <= priceCap);\n\n        Bid memory newBid = Bid({\n           price: price,\n           provider: msg.sender,\n           ipfs_id: ipfs_id,\n           approval: false\n        });\n\n        bids.push(newBid);\n    }\n\n    function approveBid(uint id) public {\n        Bid storage bid = bids[id];\n        require(manager == msg.sender);\n        require(address(this).balance >= bid.price);\n\n        bid.provider.transfer(bid.price);\n        bid.approval = true;\n    }\n\n    function getIpfsId(uint id) public view returns(string) {\n        return bids[id].ipfs_id;\n    }\n\n    function getBid(uint id) public view returns(uint, address, string, bool) {\n        Bid memory bid = bids[id];\n        return (bid.price, bid.provider, bid.ipfs_id, bid.approval);\n    }\n}\n",
  "sourcePath": "/Users/rexlee/Desktop/decentralized storage/StorageSmartContract/contracts/Storage.sol",
  "compiler": {
    "name": "solc",
    "version": "0.4.24+commit.e67f0147.Emscripten.clang"
  },
  "schemaVersion": "2.0.0",
  "updatedAt": "2018-06-17T08:52:14.803Z"
}