{
  "contractName": "Storage",
  "abi": [
    {
      "constant": true,
      "inputs": [],
      "name": "priceCap",
      "outputs": [
        {
          "name": "",
          "type": "uint256"
        }
      ],
      "payable": false,
      "stateMutability": "view",
      "type": "function"
    },
    {
      "constant": true,
      "inputs": [
        {
          "name": "",
          "type": "uint256"
        }
      ],
      "name": "bids",
      "outputs": [
        {
          "name": "price",
          "type": "uint256"
        },
        {
          "name": "provider",
          "type": "address"
        },
        {
          "name": "ipfs_id",
          "type": "string"
        },
        {
          "name": "approval",
          "type": "bool"
        }
      ],
      "payable": false,
      "stateMutability": "view",
      "type": "function"
    },
    {
      "constant": true,
      "inputs": [],
      "name": "manager",
      "outputs": [
        {
          "name": "",
          "type": "address"
        }
      ],
      "payable": false,
      "stateMutability": "view",
      "type": "function"
    },
    {
      "inputs": [
        {
          "name": "cap",
          "type": "uint256"
        }
      ],
      "payable": true,
      "stateMutability": "payable",
      "type": "constructor"
    },
    {
      "constant": false,
      "inputs": [
        {
          "name": "price",
          "type": "uint256"
        },
        {
          "name": "ipfs_id",
          "type": "string"
        }
      ],
      "name": "createBid",
      "outputs": [],
      "payable": false,
      "stateMutability": "nonpayable",
      "type": "function"
    },
    {
      "constant": false,
      "inputs": [
        {
          "name": "id",
          "type": "uint256"
        }
      ],
      "name": "approveBid",
      "outputs": [],
      "payable": false,
      "stateMutability": "nonpayable",
      "type": "function"
    },
    {
      "constant": true,
      "inputs": [
        {
          "name": "id",
          "type": "uint256"
        }
      ],
      "name": "getIpfsId",
      "outputs": [
        {
          "name": "",
          "type": "string"
        }
      ],
      "payable": false,
      "stateMutability": "view",
      "type": "function"
    },
    {
      "constant": true,
      "inputs": [
        {
          "name": "id",
          "type": "uint256"
        }
      ],
      "name": "getBid",
      "outputs": [
        {
          "name": "",
          "type": "uint256"
        },
        {
          "name": "",
          "type": "address"
        },
        {
          "name": "",
          "type": "string"
        },
        {
          "name": "",
          "type": "bool"
        }
      ],
      "payable": false,
      "stateMutability": "view",
      "type": "function"
    },
    {
      "constant": true,
      "inputs": [],
      "name": "getBidSize",
      "outputs": [
        {
          "name": "",
          "type": "uint256"
        }
      ],
      "payable": false,
      "stateMutability": "view",
      "type": "function"
    }
  ],
  "bytecode": "0x6080604052604051602080610b1f8339810180604052810190808051906020019092919050505033600160006101000a81548173ffffffffffffffffffffffffffffffffffffffff021916908373ffffffffffffffffffffffffffffffffffffffff1602179055508060028190555050610aa18061007e6000396000f30060806040526004361061008e576000357c0100000000000000000000000000000000000000000000000000000000900463ffffffff16806302b7847c146100935780633c889e6f146100be5780634423c5f1146101a9578063481c6a7514610294578063613e867e146102eb5780637013759314610318578063d3feb5791461038b578063f57250cb146103b6575b600080fd5b34801561009f57600080fd5b506100a861045c565b6040518082815260200191505060405180910390f35b3480156100ca57600080fd5b506100e960048036038101908080359060200190929190505050610462565b604051808581526020018473ffffffffffffffffffffffffffffffffffffffff1673ffffffffffffffffffffffffffffffffffffffff1681526020018060200183151515158152602001828103825284818151815260200191508051906020019080838360005b8381101561016b578082015181840152602081019050610150565b50505050905090810190601f1680156101985780820380516001836020036101000a031916815260200191505b509550505050505060405180910390f35b3480156101b557600080fd5b506101d4600480360381019080803590602001909291905050506105e0565b604051808581526020018473ffffffffffffffffffffffffffffffffffffffff1673ffffffffffffffffffffffffffffffffffffffff1681526020018060200183151515158152602001828103825284818151815260200191508051906020019080838360005b8381101561025657808201518184015260208101905061023b565b50505050905090810190601f1680156102835780820380516001836020036101000a031916815260200191505b509550505050505060405180910390f35b3480156102a057600080fd5b506102a96106e4565b604051808273ffffffffffffffffffffffffffffffffffffffff1673ffffffffffffffffffffffffffffffffffffffff16815260200191505060405180910390f35b3480156102f757600080fd5b506103166004803603810190808035906020019092919050505061070a565b005b34801561032457600080fd5b5061038960048036038101908080359060200190929190803590602001908201803590602001908080601f01602080910402602001604051908101604052809392919081815260200183838082843782019150505050505091929192905050506107a7565b005b34801561039757600080fd5b506103a06108c1565b6040518082815260200191505060405180910390f35b3480156103c257600080fd5b506103e1600480360381019080803590602001909291905050506108cd565b6040518080602001828103825283818151815260200191508051906020019080838360005b83811015610421578082015181840152602081019050610406565b50505050905090810190601f16801561044e5780820380516001836020036101000a031916815260200191505b509250505060405180910390f35b60025481565b6000806060600061047161098f565b60008681548110151561048057fe5b906000526020600020906004020160806040519081016040529081600082015481526020016001820160009054906101000a900473ffffffffffffffffffffffffffffffffffffffff1673ffffffffffffffffffffffffffffffffffffffff1673ffffffffffffffffffffffffffffffffffffffff168152602001600282018054600181600116156101000203166002900480601f0160208091040260200160405190810160405280929190818152602001828054600181600116156101000203166002900480156105935780601f1061056857610100808354040283529160200191610593565b820191906000526020600020905b81548152906001019060200180831161057657829003601f168201915b505050505081526020016003820160009054906101000a900460ff161515151581525050905080600001518160200151826040015183606001518191509450945094509450509193509193565b6000818154811015156105ef57fe5b90600052602060002090600402016000915090508060000154908060010160009054906101000a900473ffffffffffffffffffffffffffffffffffffffff1690806002018054600181600116156101000203166002900480601f0160208091040260200160405190810160405280929190818152602001828054600181600116156101000203166002900480156106c75780601f1061069c576101008083540402835291602001916106c7565b820191906000526020600020905b8154815290600101906020018083116106aa57829003601f168201915b5050505050908060030160009054906101000a900460ff16905084565b600160009054906101000a900473ffffffffffffffffffffffffffffffffffffffff1681565b6000808281548110151561071a57fe5b906000526020600020906004020190503373ffffffffffffffffffffffffffffffffffffffff16600160009054906101000a900473ffffffffffffffffffffffffffffffffffffffff1673ffffffffffffffffffffffffffffffffffffffff1614151561078657600080fd5b60018160030160006101000a81548160ff0219169083151502179055505050565b6107af61098f565b60025483111515156107c057600080fd5b6080604051908101604052808481526020013373ffffffffffffffffffffffffffffffffffffffff168152602001838152602001600015158152509050600081908060018154018082558091505090600182039060005260206000209060040201600090919290919091506000820151816000015560208201518160010160006101000a81548173ffffffffffffffffffffffffffffffffffffffff021916908373ffffffffffffffffffffffffffffffffffffffff16021790555060408201518160020190805190602001906108989291906109d0565b5060608201518160030160006101000a81548160ff021916908315150217905550505050505050565b60008080549050905090565b60606000828154811015156108de57fe5b90600052602060002090600402016002018054600181600116156101000203166002900480601f0160208091040260200160405190810160405280929190818152602001828054600181600116156101000203166002900480156109835780601f1061095857610100808354040283529160200191610983565b820191906000526020600020905b81548152906001019060200180831161096657829003601f168201915b50505050509050919050565b60806040519081016040528060008152602001600073ffffffffffffffffffffffffffffffffffffffff168152602001606081526020016000151581525090565b828054600181600116156101000203166002900490600052602060002090601f016020900481019282601f10610a1157805160ff1916838001178555610a3f565b82800160010185558215610a3f579182015b82811115610a3e578251825591602001919060010190610a23565b5b509050610a4c9190610a50565b5090565b610a7291905b80821115610a6e576000816000905550600101610a56565b5090565b905600a165627a7a72305820ef6d9bad267893af74555511cec89ec82842010c4ed4f83d7beae98d9a54bd9a0029",
  "source": "pragma solidity ^0.4.17;\n\ncontract Storage {\n    struct Bid {\n        uint price;\n        address provider;\n        string ipfs_id;\n        bool approval;\n    }\n\n    Bid[] public bids;\n    address public manager;\n    uint public priceCap;\n\n    constructor(uint cap) public payable {\n        manager = msg.sender;\n        priceCap = cap;\n    }\n\n    function createBid(uint price, string ipfs_id) public {\n        require(price <= priceCap);\n\n        Bid memory newBid = Bid({\n           price: price,\n           provider: msg.sender,\n           ipfs_id: ipfs_id,\n           approval: false\n        });\n\n        bids.push(newBid);\n    }\n\n    function approveBid(uint id) public {\n        Bid storage bid = bids[id];\n        require(manager == msg.sender);\n        //require(address(this).balance >= bid.price);\n\n        //bid.provider.transfer(bid.price);\n        bid.approval = true;\n    }\n\n    function getIpfsId(uint id) public view returns(string) {\n        return bids[id].ipfs_id;\n    }\n\n    function getBid(uint id) public view returns(uint, address, string, bool) {\n        Bid memory bid = bids[id];\n        return (bid.price, bid.provider, bid.ipfs_id, bid.approval);\n    }\n\n    function getBidSize() public view returns(uint) {\n        return bids.length;\n    }\n}\n",
  "sourcePath": "/Users/rexlee/Desktop/decentralized storage/StorageSmartContract/contracts/Storage.sol",
  "compiler": {
    "name": "solc",
    "version": "0.4.24+commit.e67f0147.Emscripten.clang"
  },
  "schemaVersion": "2.0.0",
  "updatedAt": "2018-06-21T14:56:49.566Z"
}